{"abi":[{"type":"constructor","inputs":[{"name":"lidoLocator","type":"address","internalType":"address"},{"name":"csModuleType","type":"bytes32","internalType":"bytes32"}],"stateMutability":"nonpayable"},{"type":"function","name":"COMMITTEE_ROLE","inputs":[],"outputs":[{"name":"","type":"bytes32","internalType":"bytes32"}],"stateMutability":"view"},{"type":"function","name":"DEFAULT_ADMIN_ROLE","inputs":[],"outputs":[{"name":"","type":"bytes32","internalType":"bytes32"}],"stateMutability":"view"},{"type":"function","name":"LIDO_LOCATOR","inputs":[],"outputs":[{"name":"","type":"address","internalType":"contract ILidoLocator"}],"stateMutability":"view"},{"type":"function","name":"getConfig","inputs":[],"outputs":[{"name":"optInMinDurationBlocks","type":"uint64","internalType":"uint64"},{"name":"optOutDelayDurationBlocks","type":"uint64","internalType":"uint64"},{"name":"defaultOperatorMaxValidators","type":"uint64","internalType":"uint64"},{"name":"defaultBlockGasLimit","type":"uint64","internalType":"uint64"}],"stateMutability":"view"},{"type":"function","name":"getOperator","inputs":[{"name":"manager","type":"address","internalType":"address"}],"outputs":[{"name":"moduleId","type":"uint24","internalType":"uint24"},{"name":"operatorId","type":"uint64","internalType":"uint64"},{"name":"isEnabled","type":"bool","internalType":"bool"},{"name":"state","type":"tuple","internalType":"struct OperatorState","components":[{"name":"manager","type":"address","internalType":"address"},{"name":"keysRangeState","type":"tuple","internalType":"struct OperatorKeysRangeState","components":[{"name":"indexStart","type":"uint64","internalType":"uint64"},{"name":"indexEnd","type":"uint64","internalType":"uint64"}]},{"name":"optInOutState","type":"tuple","internalType":"struct OperatorOptInOutState","components":[{"name":"optInBlock","type":"uint64","internalType":"uint64"},{"name":"optOutBlock","type":"uint64","internalType":"uint64"},{"name":"isOptOutForced","type":"bool","internalType":"bool"}]},{"name":"extraData","type":"tuple","internalType":"struct OperatorExtraData","components":[{"name":"rpcURL","type":"string","internalType":"string"}]}]}],"stateMutability":"view"},{"type":"function","name":"getOperator","inputs":[{"name":"_moduleId","type":"uint24","internalType":"uint24"},{"name":"_operatorId","type":"uint64","internalType":"uint64"}],"outputs":[{"name":"moduleId","type":"uint24","internalType":"uint24"},{"name":"operatorId","type":"uint64","internalType":"uint64"},{"name":"isEnabled","type":"bool","internalType":"bool"},{"name":"state","type":"tuple","internalType":"struct OperatorState","components":[{"name":"manager","type":"address","internalType":"address"},{"name":"keysRangeState","type":"tuple","internalType":"struct OperatorKeysRangeState","components":[{"name":"indexStart","type":"uint64","internalType":"uint64"},{"name":"indexEnd","type":"uint64","internalType":"uint64"}]},{"name":"optInOutState","type":"tuple","internalType":"struct OperatorOptInOutState","components":[{"name":"optInBlock","type":"uint64","internalType":"uint64"},{"name":"optOutBlock","type":"uint64","internalType":"uint64"},{"name":"isOptOutForced","type":"bool","internalType":"bool"}]},{"name":"extraData","type":"tuple","internalType":"struct OperatorExtraData","components":[{"name":"rpcURL","type":"string","internalType":"string"}]}]}],"stateMutability":"view"},{"type":"function","name":"getRoleAdmin","inputs":[{"name":"role","type":"bytes32","internalType":"bytes32"}],"outputs":[{"name":"","type":"bytes32","internalType":"bytes32"}],"stateMutability":"view"},{"type":"function","name":"getRoleMember","inputs":[{"name":"role","type":"bytes32","internalType":"bytes32"},{"name":"index","type":"uint256","internalType":"uint256"}],"outputs":[{"name":"","type":"address","internalType":"address"}],"stateMutability":"view"},{"type":"function","name":"getRoleMemberCount","inputs":[{"name":"role","type":"bytes32","internalType":"bytes32"}],"outputs":[{"name":"","type":"uint256","internalType":"uint256"}],"stateMutability":"view"},{"type":"function","name":"getRoleMembers","inputs":[{"name":"role","type":"bytes32","internalType":"bytes32"}],"outputs":[{"name":"","type":"address[]","internalType":"address[]"}],"stateMutability":"view"},{"type":"function","name":"grantRole","inputs":[{"name":"role","type":"bytes32","internalType":"bytes32"},{"name":"account","type":"address","internalType":"address"}],"outputs":[],"stateMutability":"nonpayable"},{"type":"function","name":"hasRole","inputs":[{"name":"role","type":"bytes32","internalType":"bytes32"},{"name":"account","type":"address","internalType":"address"}],"outputs":[{"name":"","type":"bool","internalType":"bool"}],"stateMutability":"view"},{"type":"function","name":"initialize","inputs":[{"name":"committeeAddress","type":"address","internalType":"address"},{"name":"optInMinDurationBlocks","type":"uint64","internalType":"uint64"},{"name":"optOutDelayDurationBlocks","type":"uint64","internalType":"uint64"},{"name":"defaultOperatorMaxValidators","type":"uint64","internalType":"uint64"},{"name":"defaultBlockGasLimit","type":"uint64","internalType":"uint64"}],"outputs":[],"stateMutability":"nonpayable"},{"type":"function","name":"optIn","inputs":[{"name":"moduleId","type":"uint24","internalType":"uint24"},{"name":"operatorId","type":"uint64","internalType":"uint64"},{"name":"manager","type":"address","internalType":"address"},{"name":"newKeyIndexRangeStart","type":"uint64","internalType":"uint64"},{"name":"newKeyIndexRangeEnd","type":"uint64","internalType":"uint64"},{"name":"rpcURL","type":"string","internalType":"string"}],"outputs":[],"stateMutability":"nonpayable"},{"type":"function","name":"optOut","inputs":[],"outputs":[],"stateMutability":"nonpayable"},{"type":"function","name":"optOut","inputs":[{"name":"moduleId","type":"uint24","internalType":"uint24"},{"name":"operatorId","type":"uint64","internalType":"uint64"}],"outputs":[],"stateMutability":"nonpayable"},{"type":"function","name":"pause","inputs":[],"outputs":[],"stateMutability":"nonpayable"},{"type":"function","name":"paused","inputs":[],"outputs":[{"name":"","type":"bool","internalType":"bool"}],"stateMutability":"view"},{"type":"function","name":"renounceRole","inputs":[{"name":"role","type":"bytes32","internalType":"bytes32"},{"name":"callerConfirmation","type":"address","internalType":"address"}],"outputs":[],"stateMutability":"nonpayable"},{"type":"function","name":"resetForcedOptOut","inputs":[{"name":"moduleId","type":"uint24","internalType":"uint24"},{"name":"operatorId","type":"uint64","internalType":"uint64"}],"outputs":[],"stateMutability":"nonpayable"},{"type":"function","name":"revokeRole","inputs":[{"name":"role","type":"bytes32","internalType":"bytes32"},{"name":"account","type":"address","internalType":"address"}],"outputs":[],"stateMutability":"nonpayable"},{"type":"function","name":"setConfig","inputs":[{"name":"optInMinDurationBlocks","type":"uint64","internalType":"uint64"},{"name":"optOutDelayDurationBlocks","type":"uint64","internalType":"uint64"},{"name":"defaultOperatorMaxValidators","type":"uint64","internalType":"uint64"},{"name":"defaultBlockGasLimit","type":"uint64","internalType":"uint64"}],"outputs":[],"stateMutability":"nonpayable"},{"type":"function","name":"setModuleState","inputs":[{"name":"moduleId","type":"uint24","internalType":"uint24"},{"name":"isDisabled","type":"bool","internalType":"bool"},{"name":"operatorMaxValidators","type":"uint64","internalType":"uint64"}],"outputs":[],"stateMutability":"nonpayable"},{"type":"function","name":"supportsInterface","inputs":[{"name":"interfaceId","type":"bytes4","internalType":"bytes4"}],"outputs":[{"name":"","type":"bool","internalType":"bool"}],"stateMutability":"view"},{"type":"function","name":"unpause","inputs":[],"outputs":[],"stateMutability":"nonpayable"},{"type":"function","name":"updateKeysRange","inputs":[{"name":"newKeyIndexRangeStart","type":"uint64","internalType":"uint64"},{"name":"newKeyIndexRangeEnd","type":"uint64","internalType":"uint64"}],"outputs":[],"stateMutability":"nonpayable"},{"type":"function","name":"updateManager","inputs":[{"name":"moduleId","type":"uint24","internalType":"uint24"},{"name":"operatorId","type":"uint64","internalType":"uint64"},{"name":"newManager","type":"address","internalType":"address"}],"outputs":[],"stateMutability":"nonpayable"},{"type":"event","name":"ConfigUpdated","inputs":[{"name":"optInMinDurationBlocks","type":"uint256","indexed":false,"internalType":"uint256"},{"name":"optOutDelayDurationBlocks","type":"uint256","indexed":false,"internalType":"uint256"},{"name":"defaultOperatorMaxValidators","type":"uint256","indexed":false,"internalType":"uint256"},{"name":"defaultBlockGasLimit","type":"uint256","indexed":false,"internalType":"uint256"}],"anonymous":false},{"type":"event","name":"Initialized","inputs":[{"name":"version","type":"uint64","indexed":false,"internalType":"uint64"}],"anonymous":false},{"type":"event","name":"KeyRangeUpdated","inputs":[{"name":"moduleId","type":"uint256","indexed":true,"internalType":"uint256"},{"name":"operatorId","type":"uint256","indexed":true,"internalType":"uint256"},{"name":"keysRangeStart","type":"uint256","indexed":false,"internalType":"uint256"},{"name":"keysRangeEnd","type":"uint256","indexed":false,"internalType":"uint256"}],"anonymous":false},{"type":"event","name":"ModuleStateUpdated","inputs":[{"name":"moduleId","type":"uint256","indexed":true,"internalType":"uint256"},{"name":"isDisabled","type":"bool","indexed":false,"internalType":"bool"},{"name":"operatorMaxValidators","type":"uint256","indexed":false,"internalType":"uint256"}],"anonymous":false},{"type":"event","name":"OptInSucceeded","inputs":[{"name":"moduleId","type":"uint256","indexed":true,"internalType":"uint256"},{"name":"operatorId","type":"uint256","indexed":true,"internalType":"uint256"},{"name":"manager","type":"address","indexed":false,"internalType":"address"}],"anonymous":false},{"type":"event","name":"OptOutRequested","inputs":[{"name":"moduleId","type":"uint256","indexed":true,"internalType":"uint256"},{"name":"operatorId","type":"uint256","indexed":true,"internalType":"uint256"},{"name":"isForced","type":"bool","indexed":false,"internalType":"bool"}],"anonymous":false},{"type":"event","name":"Paused","inputs":[{"name":"account","type":"address","indexed":false,"internalType":"address"}],"anonymous":false},{"type":"event","name":"RPCUrlUpdated","inputs":[{"name":"moduleId","type":"uint256","indexed":true,"internalType":"uint256"},{"name":"operatorId","type":"uint256","indexed":true,"internalType":"uint256"},{"name":"rpcURL","type":"string","indexed":false,"internalType":"string"}],"anonymous":false},{"type":"event","name":"ResetForcedOptOut","inputs":[{"name":"moduleId","type":"uint256","indexed":true,"internalType":"uint256"},{"name":"operatorId","type":"uint256","indexed":true,"internalType":"uint256"}],"anonymous":false},{"type":"event","name":"RoleAdminChanged","inputs":[{"name":"role","type":"bytes32","indexed":true,"internalType":"bytes32"},{"name":"previousAdminRole","type":"bytes32","indexed":true,"internalType":"bytes32"},{"name":"newAdminRole","type":"bytes32","indexed":true,"internalType":"bytes32"}],"anonymous":false},{"type":"event","name":"RoleGranted","inputs":[{"name":"role","type":"bytes32","indexed":true,"internalType":"bytes32"},{"name":"account","type":"address","indexed":true,"internalType":"address"},{"name":"sender","type":"address","indexed":true,"internalType":"address"}],"anonymous":false},{"type":"event","name":"RoleRevoked","inputs":[{"name":"role","type":"bytes32","indexed":true,"internalType":"bytes32"},{"name":"account","type":"address","indexed":true,"internalType":"address"},{"name":"sender","type":"address","indexed":true,"internalType":"address"}],"anonymous":false},{"type":"event","name":"Unpaused","inputs":[{"name":"account","type":"address","indexed":false,"internalType":"address"}],"anonymous":false},{"type":"error","name":"AccessControlBadConfirmation","inputs":[]},{"type":"error","name":"AccessControlUnauthorizedAccount","inputs":[{"name":"account","type":"address","internalType":"address"},{"name":"neededRole","type":"bytes32","internalType":"bytes32"}]},{"type":"error","name":"EnforcedPause","inputs":[]},{"type":"error","name":"ExpectedPause","inputs":[]},{"type":"error","name":"InvalidInitialization","inputs":[]},{"type":"error","name":"InvalidModuleId","inputs":[]},{"type":"error","name":"InvalidOperatorId","inputs":[]},{"type":"error","name":"KeyIndexMismatch","inputs":[]},{"type":"error","name":"KeyIndexOutOfRange","inputs":[]},{"type":"error","name":"KeysRangeExceedMaxValidators","inputs":[]},{"type":"error","name":"ManagerBelongsToOtherOperator","inputs":[]},{"type":"error","name":"ManagerNotRegistered","inputs":[]},{"type":"error","name":"ModuleDisabled","inputs":[]},{"type":"error","name":"NotInitializing","inputs":[]},{"type":"error","name":"OperatorAlreadyRegistered","inputs":[]},{"type":"error","name":"OperatorNotActive","inputs":[]},{"type":"error","name":"OperatorNotRegistered","inputs":[]},{"type":"error","name":"OperatorOptInNotAllowed","inputs":[]},{"type":"error","name":"OperatorOptOutNotAllowed","inputs":[]},{"type":"error","name":"RewardAddressMismatch","inputs":[]},{"type":"error","name":"SameValue","inputs":[]},{"type":"error","name":"ZeroCommitteeAddress","inputs":[]},{"type":"error","name":"ZeroDefaultBlockGasLimit","inputs":[]},{"type":"error","name":"ZeroDefaultOperatorMaxValidators","inputs":[]},{"type":"error","name":"ZeroLocatorAddress","inputs":[]},{"type":"error","name":"ZeroOperatorManagerAddress","inputs":[]}],"bytecode":{"object":"0x60c060405234801561000f575f5ffd5b5060405161309f38038061309f83398101604081905261002e91610128565b6001600160a01b03821661005557604051630f05a38b60e41b815260040160405180910390fd5b6001600160a01b03821660805260a081905261006f610076565b505061015f565b7ff0c57e16840df040f15088dc2f81fe391c3923bec73e23a9662efc9c229c6a00805468010000000000000000900460ff16156100c65760405163f92ee8a960e01b815260040160405180910390fd5b80546001600160401b03908116146101255780546001600160401b0319166001600160401b0390811782556040519081527fc7f505b2f371ae2175ee4913f4499e1f2633a7b5936321eed1cdaeb6115181d29060200160405180910390a15b50565b5f5f60408385031215610139575f5ffd5b82516001600160a01b038116811461014f575f5ffd5b6020939093015192949293505050565b60805160a051612f186101875f395f611a5a01525f818161040d01526121100152612f185ff3fe608060405234801561000f575f5ffd5b50600436106101a1575f3560e01c80639010d07c116100f3578063ba6bc8d511610093578063d4eec5a61161006e578063d4eec5a6146103da578063d547741f146103e2578063d6dc6ae7146103f5578063dbba4b4814610408575f5ffd5b8063ba6bc8d514610379578063c3f909d41461038c578063ca15c873146103c7575f5ffd5b8063a3246ad3116100ce578063a3246ad31461031f578063a3714e071461033f578063ad32563d14610352578063b10f63d814610366575f5ffd5b80639010d07c146102da57806391d1485414610305578063a217fddf14610318575f5ffd5b80633c074eb31161015e5780635c975abb116101395780635c975abb1461029557806370bc09f6146102ac5780638456cb59146102bf578063893d004e146102c7575f5ffd5b80633c074eb3146102575780633f4ba83a1461026a5780635865c60c14610272575f5ffd5b806301ffc9a7146101a557806313e09453146101cd578063248a9ca3146101e25780632de0920c1461021e5780632f2ff15d1461023157806336568abe14610244575b5f5ffd5b6101b86101b3366004612373565b61042f565b60405190151581526020015b60405180910390f35b6101e06101db3660046123c2565b610459565b005b6102106101f036600461242f565b5f9081525f516020612ecc5f395f51905f52602052604090206001015490565b6040519081526020016101c4565b6101e061022c36600461250c565b6105c6565b6101e061023f3660046125df565b610780565b6101e06102523660046125df565b6107b6565b6101e061026536600461260d565b6107ee565b6101e0610879565b610285610280366004612639565b61089b565b6040516101c4949392919061268c565b5f516020612eec5f395f51905f525460ff166101b8565b6101e06102ba366004612749565b6108cb565b6101e06108f5565b6101e06102d53660046127a2565b610914565b6102ed6102e83660046127ea565b6109ae565b6040516001600160a01b0390911681526020016101c4565b6101b86103133660046125df565b6109db565b6102105f81565b61033261032d36600461242f565b610a11565b6040516101c4919061280a565b61028561034d36600461260d565b610a41565b6102105f516020612e8c5f395f51905f5281565b6101e0610374366004612862565b610a73565b6101e061038736600461289f565b610b79565b610394610c80565b604080516001600160401b03958616815293851660208501529184169183019190915290911660608201526080016101c4565b6102106103d536600461242f565b610cae565b6101e0610cd2565b6101e06103f03660046125df565b610dad565b6101e061040336600461260d565b610ddd565b6102ed7f000000000000000000000000000000000000000000000000000000000000000081565b5f6001600160e01b03198216635a05180f60e01b1480610453575061045382610ea7565b92915050565b7ff0c57e16840df040f15088dc2f81fe391c3923bec73e23a9662efc9c229c6a008054600160401b810460ff1615906001600160401b03165f8115801561049d5750825b90505f826001600160401b031660011480156104b85750303b155b9050811580156104c6575080155b156104e45760405163f92ee8a960e01b815260040160405180910390fd5b845467ffffffffffffffff19166001178555831561050e57845460ff60401b1916600160401b1785555b6001600160a01b038a16610535576040516319467aa760e11b815260040160405180910390fd5b61053d610edb565b610545610eed565b61054f5f8b610ef5565b506105675f516020612e8c5f395f51905f528b610ef5565b5061057489898989610f37565b83156105ba57845460ff60401b19168555604051600181527fc7f505b2f371ae2175ee4913f4499e1f2633a7b5936321eed1cdaeb6115181d29060200160405180910390a15b50505050505050505050565b6105ce61106e565b6105d66122b9565b6001600160a01b0385166105fd57604051634434240960e11b815260040160405180910390fd5b61060881888861109e565b80606001516001600160a01b0316336001600160a01b03161461063e576040516349ad9b0960e11b815260040160405180910390fd5b8060a0015161066057604051631a8660cb60e01b815260040160405180910390fd5b6001600160401b038616604088901b62ffffff60401b16175f610682826110b2565b90505f61068e82611118565b8051909150156106b1576040516342ee68b560e01b815260040160405180910390fd5b80604001516106d3576040516328a5715760e21b815260040160405180910390fd5b6106dd8389611216565b604080516060810182526001600160401b03431681525f602082018190529181019190915261070d9084906112ca565b6040516001600160a01b03891681526001600160401b038a169062ffffff8c16907f742aa8302eca1011d41495047d2d195954b0f91a24ac18e221a1788507e42d7d9060200160405180910390a36107678484898961132b565b60408051602081019091528581526105ba9084906113cc565b5f8281525f516020612ecc5f395f51905f5260205260409020600101546107a6816113eb565b6107b08383610ef5565b50505050565b6001600160a01b03811633146107df5760405163334bd91960e11b815260040160405180910390fd5b6107e982826113f5565b505050565b5f516020612e8c5f395f51905f52610805816113eb565b5f610810848461142e565b90505f61081c826110b2565b9050806040015115610838575f604082015261083882826112ca565b6040516001600160401b0385169062ffffff8716907f2b140fd22a9c33bfd560c6a50d8f4f235e6d85feeb1629b97b62b488f3c95004905f90a35050505050565b5f516020612e8c5f395f51905f52610890816113eb565b610898611477565b50565b5f5f5f6108a66122ed565b5f6108b0866114d6565b90506108bb81611520565b9450945094509450509193509193565b5f516020612e8c5f395f51905f526108e2816113eb565b6108ee85858585610f37565b5050505050565b5f516020612e8c5f395f51905f5261090c816113eb565b6108986115b6565b61091c61106e565b6001600160a01b03811661094357604051634434240960e11b815260040160405180910390fd5b61094b6122b9565b61095681858561109e565b80606001516001600160a01b0316336001600160a01b03161461098c576040516349ad9b0960e11b815260040160405180910390fd5b6001600160401b038316604085901b62ffffff60401b16176108ee8184611216565b5f8281525f516020612e6c5f395f51905f526020819052604082206109d390846115fe565b949350505050565b5f9182525f516020612ecc5f395f51905f52602090815260408084206001600160a01b0393909316845291905290205460ff1690565b5f8181525f516020612e6c5f395f51905f526020819052604090912060609190610a3a90611609565b9392505050565b5f5f5f610a4c6122ed565b5f610a57878761142e565b9050610a6281611520565b929a91995097509095509350505050565b5f516020612e8c5f395f51905f52610a8a816113eb565b610a926122b9565b610a9c8186611615565b5f610aa6866116ab565b85151581526001600160401b03858116602080840191825262ffffff8a165f9081527f250c379b4df7db4aa0cebfe63c44e477918a4a35c66c19b68448ebd5517bd1029091526040902083518154925168ffffffffffffffffff1990931690151568ffffffffffffffff00191617610100929093169190910291909117905590506040805186151581526001600160401b038616602082015262ffffff8816917f9ea2c0fdca3eb79272af911e373f2b128f6f8ae84133e610e4798488facc243d910160405180910390a2505050505050565b610b8161106e565b5f610b8b336114d6565b90505f610b9f610b9a836110b2565b611118565b8051909150610bc157604051631a8660cb60e01b815260040160405180910390fd5b5f610bcb8361171a565b9050805f01516001600160401b0316856001600160401b03161180610c05575080602001516001600160401b0316846001600160401b0316105b80610c3c575080516001600160401b038681169116148015610c3c575080602001516001600160401b0316846001600160401b0316145b15610c5a5760405163c7f544bb60e01b815260040160405180910390fd5b610c626122b9565b610c6c8185611768565b610c788185888861132b565b505050505050565b5f5f5f5f5f610c8d611779565b80516020820151604083015160609093015191989097509195509350915050565b5f8181525f516020612e6c5f395f51905f52602081905260408220610a3a9061180b565b610cda61106e565b5f610ce4336114d6565b90505f610cf0826110b2565b90505f610cfc82611118565b8051909150610d1e57604051631a8660cb60e01b815260040160405180910390fd5b8060600151610d4057604051630eedec1160e31b815260040160405180910390fd5b6001600160401b0343166020830152610d5983836112ca565b604080515f81529084901c9084906001600160401b0382169062ffffff8416907fd6b972cb40d3e29a33d9ccde1b9db78d12306458943f95974c2856d9093d46849060200160405180910390a35050505050565b5f8281525f516020612ecc5f395f51905f526020526040902060010154610dd3816113eb565b6107b083836113f5565b5f516020612e8c5f395f51905f52610df4816113eb565b5f610dff848461142e565b90505f610e0b826110b2565b90505f610e1782611118565b8051909150610e3957604051631a8660cb60e01b815260040160405180910390fd5b6001600160401b034316602083015260016040830152610e5983836112ca565b604051600181526001600160401b0386169062ffffff8816907fd6b972cb40d3e29a33d9ccde1b9db78d12306458943f95974c2856d9093d46849060200160405180910390a3505050505050565b5f6001600160e01b03198216637965db0b60e01b148061045357506301ffc9a760e01b6001600160e01b0319831614610453565b610ee3611814565b610eeb61185d565b565b610eeb611814565b5f5f516020612e6c5f395f51905f5281610f0f858561187d565b905080156109d3575f858152602083905260409020610f2e908561191e565b50949350505050565b816001600160401b03165f03610f605760405163ad617a0b60e01b815260040160405180910390fd5b806001600160401b03165f03610f8857604051628faa1f60e61b815260040160405180910390fd5b60408051608080820183526001600160401b03878116808452878216602080860182905288841686880181905293881660609687018190527f250c379b4df7db4aa0cebfe63c44e477918a4a35c66c19b68448ebd5517bd10380546001600160801b0319168517600160401b8502176fffffffffffffffffffffffffffffffff16600160801b87026001600160c01b031617600160c01b8302179055875193845290830191909152818601929092529283015291517f84d25455db084cf777a0a4a00fcc28946b3a2ebc5cc866ef8820ab8571dbdd36929181900390910190a150505050565b5f516020612eec5f395f51905f525460ff1615610eeb5760405163d93c066560e01b815260040160405180910390fd5b6110a88383611615565b6107e98382611932565b604080516060810182525f80825260208201819052918101919091526110d782611c3d565b60408051606081018252600292909201546001600160401b038082168452600160401b8204166020840152600160801b900460ff1615159082015292915050565b604080516080810182525f808252602082018190529181018290526060810191909152435f611145611779565b90505f5f85602001516001600160401b03161180156111885750826001600160401b03168260200151866020015161117d91906128cf565b6001600160401b0316105b90505f5f865f01516001600160401b03161180156111a4575081155b90505f811580156111b757508660400151155b90505f8280156111e55750845188516001600160401b038816916111da916128cf565b6001600160401b0316105b6040805160808101825294151585529415156020850152911515938301939093521515606082015295945050505050565b6112208282611c6c565b5f61122a83611c3d565b80549091506001600160a01b031680158015906112595750826001600160a01b0316816001600160a01b031614155b15611283576001600160a01b0381165f9081525f516020612eac5f395f51905f5260205260408120555b50805473ffffffffffffffffffffffffffffffffffffffff19166001600160a01b039290921691821790555f9081525f516020612eac5f395f51905f526020526040902055565b806112d483611c3d565b8151600291909101805460208401516040909401511515600160801b0260ff60801b196001600160401b03958616600160401b026001600160801b0319909316959094169490941717919091169190911790555050565b61133a84608001518383611cbd565b8351611347908383611d41565b604080518082019091526001600160401b03808416825282166020820152611370908490611df4565b604080850151855182516001600160401b03868116825285811660208301529092169262ffffff909116917f4758feb40e053085c8bfb6815d2061a4057e0820d0f681d7c19609673db27e19910160405180910390a350505050565b806113d683611c3d565b81516003919091019081906108ee908261296a565b6108988133611e3b565b5f5f516020612e6c5f395f51905f528161140f8585611e7c565b905080156109d3575f858152602083905260409020610f2e9085611ef5565b6001600160401b038116604083901b62ffffff60401b16175f61145082611f09565b6001600160a01b031603610453576040516325ec6c1f60e01b815260040160405180910390fd5b61147f611f23565b5f516020612eec5f395f51905f52805460ff191681557f5db9ee0a495bf2e6ff9c91a7834c1ba4fdd244a5e8aa4e537bd38aeae4b073aa335b6040516001600160a01b03909116815260200160405180910390a150565b6001600160a01b0381165f9081525f516020612eac5f395f51905f5260205260408120549081900361151b5760405163fe0a2bb160e01b815260040160405180910390fd5b919050565b5f5f5f61152b6122ed565b6115336122b9565b61153d8187611768565b61154686611f52565b91505f6115568360400151611118565b90505f611565835f01516116ab565b8251909150801561157557508051155b801561158257508260a001515b801561159d57505f516020612eec5f395f51905f525460ff16155b9450825f01518360400151965096505050509193509193565b6115be61106e565b5f516020612eec5f395f51905f52805460ff191660011781557f62e78cea01bee320cd4e420270b5ea74000d11b0c9f74754ebdbfc544b05a258336114b8565b5f610a3a838361208e565b60605f610a3a836120b4565b5f61161e61210d565b604051630bc1bb1960e41b815262ffffff841660048201526001600160a01b03919091169063bc1bb190906024015f60405180830381865afa158015611666573d5f5f3e3d5ffd5b505050506040513d5f823e601f3d908101601f1916820160405261168d9190810190612ab3565b62ffffff9092168352506020908101516001600160a01b0316910152565b6040805180820182525f808252602091820181905262ffffff9390931683527f250c379b4df7db4aa0cebfe63c44e477918a4a35c66c19b68448ebd5517bd10281529181902081518083019092525460ff81161515825261010090046001600160401b03169181019190915290565b604080518082019091525f808252602082015261173682611c3d565b60408051808201909152600191909101546001600160401b038082168352600160401b90910416602082015292915050565b604081901c816107b084838361109e565b604080516080810182525f8082526020820181905291810182905260608101919091527f250c379b4df7db4aa0cebfe63c44e477918a4a35c66c19b68448ebd5517bd10060408051608081018252600392909201546001600160401b038082168452600160401b820481166020850152600160801b8204811692840192909252600160c01b9004166060820152919050565b5f610453825490565b7ff0c57e16840df040f15088dc2f81fe391c3923bec73e23a9662efc9c229c6a0054600160401b900460ff16610eeb57604051631afcd79f60e31b815260040160405180910390fd5b611865611814565b5f516020612eec5f395f51905f52805460ff19169055565b5f5f516020612ecc5f395f51905f5261189684846109db565b611915575f848152602082815260408083206001600160a01b03871684529091529020805460ff191660011790556118cb3390565b6001600160a01b0316836001600160a01b0316857f2f8788117e7eff1d82e926ec794901d17c78024a50270940304540a733656f0d60405160405180910390a46001915050610453565b5f915050610453565b5f610a3a836001600160a01b038416612193565b815162ffffff165f0361195857604051634632571560e01b815260040160405180910390fd5b5f82602001516001600160a01b031663a70c70e46040518163ffffffff1660e01b8152600401602060405180830381865afa158015611999573d5f5f3e3d5ffd5b505050506040513d601f19601f820116820180604052508101906119bd9190612be4565b9050806001600160401b0316826001600160401b0316106119f15760405163b9aa612760e01b815260040160405180910390fd5b5f83602001516001600160a01b03166315dae03e6040518163ffffffff1660e01b8152600401602060405180830381865afa158015611a32573d5f5f3e3d5ffd5b505050506040513d601f19601f82011682018060405250810190611a569190612be4565b90507f00000000000000000000000000000000000000000000000000000000000000008103611b94576020840151604051630bc5f72160e31b81526001600160401b03851660048201526001600160a01b03821690635e2fb90890602401602060405180830381865afa158015611acf573d5f5f3e3d5ffd5b505050506040513d601f19601f82011682018060405250810190611af39190612c06565b151560a08601526040516365c14dc760e01b81526001600160401b03851660048201525f906001600160a01b038316906365c14dc7906024016101e060405180830381865afa158015611b48573d5f5f3e3d5ffd5b505050506040513d601f19601f82011682018060405250810190611b6c9190612c34565b6101808101516001600160a01b031660608801525163ffffffff166080870152506107b09050565b6020840151604051632695a60f60e21b81526001600160401b03851660048201525f60248201526001600160a01b03821690639a56983c906044015f60405180830381865afa158015611be9573d5f5f3e3d5ffd5b505050506040513d5f823e601f3d908101601f19168201604052611c109190810190612d5d565b6001600160401b031660808b015250506001600160a01b0316606088015250151560a08601525050505050565b5f9081527f250c379b4df7db4aa0cebfe63c44e477918a4a35c66c19b68448ebd5517bd1006020526040902090565b6001600160a01b0381165f9081525f516020612eac5f395f51905f5260205260409020548015801590611c9f5750828114155b156107e95760405163324e8e5f60e01b815260040160405180910390fd5b806001600160401b0316826001600160401b03161115611cf05760405163c7f544bb60e01b815260040160405180910390fd5b826001600160401b0316816001600160401b0316101580611d235750826001600160401b0316826001600160401b031610155b156107e957604051637ba485c560e01b815260040160405180910390fd5b5f611d4a611779565b90505f611d56856116ab565b805190915015611d7957604051630dbfe5fd60e31b815260040160405180910390fd5b5f611d848585612df6565b611d8f9060016128cf565b90505f82602001516001600160401b03165f14611db0578260200151611db6565b83604001515b9050806001600160401b0316826001600160401b03161115611deb57604051631d1f75fb60e31b815260040160405180910390fd5b50505050505050565b80611dfe83611c3d565b815160019190910180546020909301516001600160401b03908116600160401b026001600160801b03199094169216919091179190911790555050565b611e4582826109db565b611e785760405163e2517d3f60e01b81526001600160a01b03821660048201526024810183905260440160405180910390fd5b5050565b5f5f516020612ecc5f395f51905f52611e9584846109db565b15611915575f848152602082815260408083206001600160a01b0387168085529252808320805460ff1916905551339287917ff6391f5c32d9c69d2a47ea670b442974b53935d1edc7fd64eb21e047a839171b9190a46001915050610453565b5f610a3a836001600160a01b0384166121df565b5f611f1382611c3d565b546001600160a01b031692915050565b5f516020612eec5f395f51905f525460ff16610eeb57604051638dfc202b60e01b815260040160405180910390fd5b611f5a6122ed565b611f6382611c3d565b6040805160808101825282546001600160a01b031681528151808301835260018401546001600160401b038082168352600160401b918290048116602080850191909152808501939093528451606080820187526002880154808416835293840490921681850152600160801b90920460ff1615158286015283850191909152835191820190935260038401805492949385019282908290612004906128ee565b80601f0160208091040260200160405190810160405280929190818152602001828054612030906128ee565b801561207b5780601f106120525761010080835404028352916020019161207b565b820191905f5260205f20905b81548152906001019060200180831161205e57829003601f168201915b5050509190925250505090525092915050565b5f825f0182815481106120a3576120a3612e15565b905f5260205f200154905092915050565b6060815f0180548060200260200160405190810160405280929190818152602001828054801561210157602002820191905f5260205f20905b8154815260200190600101908083116120ed575b50505050509050919050565b5f7f00000000000000000000000000000000000000000000000000000000000000006001600160a01b031663ef6c064c6040518163ffffffff1660e01b8152600401602060405180830381865afa15801561216a573d5f5f3e3d5ffd5b505050506040513d601f19601f8201168201806040525081019061218e9190612e29565b905090565b5f8181526001830160205260408120546121d857508154600181810184555f848152602080822090930184905584548482528286019093526040902091909155610453565b505f610453565b5f8181526001830160205260408120548015611915575f612201600183612e44565b85549091505f9061221490600190612e44565b9050808214612273575f865f01828154811061223257612232612e15565b905f5260205f200154905080875f01848154811061225257612252612e15565b5f918252602080832090910192909255918252600188019052604090208390555b855486908061228457612284612e57565b600190038181905f5260205f20015f90559055856001015f8681526020019081526020015f205f905560019350505050610453565b6040805160c0810182525f80825260208201819052918101829052606081018290526080810182905260a081019190915290565b60405180608001604052805f6001600160a01b0316815260200161233460405180604001604052805f6001600160401b031681526020015f6001600160401b031681525090565b8152604080516060810182525f808252602082810182905292820152910190815260200161236e6040518060200160405280606081525090565b905290565b5f60208284031215612383575f5ffd5b81356001600160e01b031981168114610a3a575f5ffd5b6001600160a01b0381168114610898575f5ffd5b6001600160401b0381168114610898575f5ffd5b5f5f5f5f5f60a086880312156123d6575f5ffd5b85356123e18161239a565b945060208601356123f1816123ae565b93506040860135612401816123ae565b92506060860135612411816123ae565b91506080860135612421816123ae565b809150509295509295909350565b5f6020828403121561243f575f5ffd5b5035919050565b62ffffff81168114610898575f5ffd5b634e487b7160e01b5f52604160045260245ffd5b6040516101a081016001600160401b038111828210171561248d5761248d612456565b60405290565b6040516101e081016001600160401b038111828210171561248d5761248d612456565b604051601f8201601f191681016001600160401b03811182821017156124de576124de612456565b604052919050565b5f6001600160401b038211156124fe576124fe612456565b50601f01601f191660200190565b5f5f5f5f5f5f60c08789031215612521575f5ffd5b863561252c81612446565b9550602087013561253c816123ae565b9450604087013561254c8161239a565b9350606087013561255c816123ae565b9250608087013561256c816123ae565b915060a08701356001600160401b03811115612586575f5ffd5b8701601f81018913612596575f5ffd5b80356125a96125a4826124e6565b6124b6565b8181528a60208385010111156125bd575f5ffd5b816020840160208301375f602083830101528093505050509295509295509295565b5f5f604083850312156125f0575f5ffd5b8235915060208301356126028161239a565b809150509250929050565b5f5f6040838503121561261e575f5ffd5b823561262981612446565b91506020830135612602816123ae565b5f60208284031215612649575f5ffd5b8135610a3a8161239a565b5f81516020845280518060208601528060208301604087015e5f604082870101526040601f19601f8301168601019250505092915050565b62ffffff851681526001600160401b03841660208201528215156040820152608060608201526001600160a01b0382511660808201525f60208301516001600160401b0381511660a08401526001600160401b0360208201511660c08401525060408301516001600160401b0381511660e08401526001600160401b036020820151166101008401526040810151151561012084015250606083015160e061014084015261273e610160840182612654565b979650505050505050565b5f5f5f5f6080858703121561275c575f5ffd5b8435612767816123ae565b93506020850135612777816123ae565b92506040850135612787816123ae565b91506060850135612797816123ae565b939692955090935050565b5f5f5f606084860312156127b4575f5ffd5b83356127bf81612446565b925060208401356127cf816123ae565b915060408401356127df8161239a565b809150509250925092565b5f5f604083850312156127fb575f5ffd5b50508035926020909101359150565b602080825282518282018190525f918401906040840190835b8181101561284a5783516001600160a01b0316835260209384019390920191600101612823565b509095945050505050565b8015158114610898575f5ffd5b5f5f5f60608486031215612874575f5ffd5b833561287f81612446565b9250602084013561288f81612855565b915060408401356127df816123ae565b5f5f604083850312156128b0575f5ffd5b8235612629816123ae565b634e487b7160e01b5f52601160045260245ffd5b6001600160401b038181168382160190811115610453576104536128bb565b600181811c9082168061290257607f821691505b60208210810361292057634e487b7160e01b5f52602260045260245ffd5b50919050565b601f8211156107e957805f5260205f20601f840160051c8101602085101561294b5750805b601f840160051c820191505b818110156108ee575f8155600101612957565b81516001600160401b0381111561298357612983612456565b6129978161299184546128ee565b84612926565b6020601f8211600181146129c9575f83156129b25750848201515b5f19600385901b1c1916600184901b1784556108ee565b5f84815260208120601f198516915b828110156129f857878501518255602094850194600190920191016129d8565b5084821015612a1557868401515f19600387901b60f8161c191681555b50505050600190811b01905550565b805161151b81612446565b805161151b8161239a565b805161ffff8116811461151b575f5ffd5b805160ff8116811461151b575f5ffd5b5f82601f830112612a6a575f5ffd5b8151612a786125a4826124e6565b818152846020838601011115612a8c575f5ffd5b8160208501602083015e5f918101602001919091529392505050565b805161151b816123ae565b5f60208284031215612ac3575f5ffd5b81516001600160401b03811115612ad8575f5ffd5b82016101a08185031215612aea575f5ffd5b612af261246a565b612afb82612a24565b8152612b0960208301612a2f565b6020820152612b1a60408301612a3a565b6040820152612b2b60608301612a3a565b6060820152612b3c60808301612a3a565b6080820152612b4d60a08301612a4b565b60a082015260c08201516001600160401b03811115612b6a575f5ffd5b612b7686828501612a5b565b60c083015250612b8860e08301612aa8565b60e082015261010082810151908201526101208083015190820152612bb06101408301612a3a565b610140820152612bc36101608301612aa8565b610160820152612bd66101808301612aa8565b610180820152949350505050565b5f60208284031215612bf4575f5ffd5b5051919050565b805161151b81612855565b5f60208284031215612c16575f5ffd5b8151610a3a81612855565b805163ffffffff8116811461151b575f5ffd5b5f6101e0828403128015612c46575f5ffd5b50612c4f612493565b612c5883612c21565b8152612c6660208401612c21565b6020820152612c7760408401612c21565b6040820152612c8860608401612c21565b6060820152612c9960808401612c21565b6080820152612caa60a08401612c21565b60a0820152612cbb60c08401612c21565b60c0820152612ccc60e08401612a4b565b60e0820152612cde6101008401612c21565b610100820152612cf16101208401612c21565b610120820152612d046101408401612a2f565b610140820152612d176101608401612a2f565b610160820152612d2a6101808401612a2f565b610180820152612d3d6101a08401612a2f565b6101a0820152612d506101c08401612bfb565b6101c08201529392505050565b5f5f5f5f5f5f60c08789031215612d72575f5ffd5b8651612d7d81612855565b60208801519096506001600160401b03811115612d98575f5ffd5b612da489828a01612a5b565b9550506040870151612db58161239a565b6060880151909450612dc6816123ae565b6080880151909350612dd7816123ae565b60a0880151909250612de8816123ae565b809150509295509295509295565b6001600160401b038281168282160390811115610453576104536128bb565b634e487b7160e01b5f52603260045260245ffd5b5f60208284031215612e39575f5ffd5b8151610a3a8161239a565b81810381811115610453576104536128bb565b634e487b7160e01b5f52603160045260245ffdfec1f6fe24621ce81ec5827caf0253cadb74709b061630e6b55e82371705932000794daa56950487582951e8db2fdbcbee68c2223c65641d0aa02a3afc64f9a86f250c379b4df7db4aa0cebfe63c44e477918a4a35c66c19b68448ebd5517bd10102dd7bc7dec4dceedda775e58dd541e08a116c6c53815c0bd028192f7b626800cd5ed15c6e187e77e9aee88184c21f4f2182ab5827cb3b7e07fbedcd63f03300a164736f6c634300081c000a","linkReferences":{}},"methodIdentifiers":{"COMMITTEE_ROLE()":"ad32563d","DEFAULT_ADMIN_ROLE()":"a217fddf","LIDO_LOCATOR()":"dbba4b48","getConfig()":"c3f909d4","getOperator(address)":"5865c60c","getOperator(uint24,uint64)":"a3714e07","getRoleAdmin(bytes32)":"248a9ca3","getRoleMember(bytes32,uint256)":"9010d07c","getRoleMemberCount(bytes32)":"ca15c873","getRoleMembers(bytes32)":"a3246ad3","grantRole(bytes32,address)":"2f2ff15d","hasRole(bytes32,address)":"91d14854","initialize(address,uint64,uint64,uint64,uint64)":"13e09453","optIn(uint24,uint64,address,uint64,uint64,string)":"2de0920c","optOut()":"d4eec5a6","optOut(uint24,uint64)":"d6dc6ae7","pause()":"8456cb59","paused()":"5c975abb","renounceRole(bytes32,address)":"36568abe","resetForcedOptOut(uint24,uint64)":"3c074eb3","revokeRole(bytes32,address)":"d547741f","setConfig(uint64,uint64,uint64,uint64)":"70bc09f6","setModuleState(uint24,bool,uint64)":"b10f63d8","supportsInterface(bytes4)":"01ffc9a7","unpause()":"3f4ba83a","updateKeysRange(uint64,uint64)":"ba6bc8d5","updateManager(uint24,uint64,address)":"893d004e"},"id":46}